{
  "contractName": "SquareVerifier",
  "abi": [
    {
      "anonymous": false,
      "inputs": [
        {
          "indexed": false,
          "internalType": "string",
          "name": "s",
          "type": "string"
        }
      ],
      "name": "Verified",
      "type": "event"
    },
    {
      "constant": false,
      "inputs": [
        {
          "internalType": "uint256[2]",
          "name": "a",
          "type": "uint256[2]"
        },
        {
          "internalType": "uint256[2]",
          "name": "a_p",
          "type": "uint256[2]"
        },
        {
          "internalType": "uint256[2][2]",
          "name": "b",
          "type": "uint256[2][2]"
        },
        {
          "internalType": "uint256[2]",
          "name": "b_p",
          "type": "uint256[2]"
        },
        {
          "internalType": "uint256[2]",
          "name": "c",
          "type": "uint256[2]"
        },
        {
          "internalType": "uint256[2]",
          "name": "c_p",
          "type": "uint256[2]"
        },
        {
          "internalType": "uint256[2]",
          "name": "h",
          "type": "uint256[2]"
        },
        {
          "internalType": "uint256[2]",
          "name": "k",
          "type": "uint256[2]"
        },
        {
          "internalType": "uint256[2]",
          "name": "input",
          "type": "uint256[2]"
        }
      ],
      "name": "verifyTx",
      "outputs": [
        {
          "internalType": "bool",
          "name": "r",
          "type": "bool"
        }
      ],
      "payable": false,
      "stateMutability": "nonpayable",
      "type": "function"
    }
  ],
  "bytecode": "0x608060405234801561001057600080fd5b50611841806100206000396000f3fe608060405234801561001057600080fd5b506004361061002b5760003560e01c8063fe01ff6214610030575b600080fd5b6102d4600480360361028081101561004757600080fd5b8101908080604001906002806020026040519081016040528092919082600260200280828437600081840152601f19601f820116905080830192505050505050919291929080604001906002806020026040519081016040528092919082600260200280828437600081840152601f19601f82011690508083019250505050505091929192908060800190600280602002604051908101604052809291906000905b8282101561013d578382604002016002806020026040519081016040528092919082600260200280828437600081840152601f19601f820116905080830192505050505050815260200190600101906100e9565b50505050919291929080604001906002806020026040519081016040528092919082600260200280828437600081840152601f19601f820116905080830192505050505050919291929080604001906002806020026040519081016040528092919082600260200280828437600081840152601f19601f820116905080830192505050505050919291929080604001906002806020026040519081016040528092919082600260200280828437600081840152601f19601f820116905080830192505050505050919291929080604001906002806020026040519081016040528092919082600260200280828437600081840152601f19601f820116905080830192505050505050919291929080604001906002806020026040519081016040528092919082600260200280828437600081840152601f19601f820116905080830192505050505050919291929080604001906002806020026040519081016040528092919082600260200280828437600081840152601f19601f82011690508083019250505050505091929192905050506102ee565b604051808215151515815260200191505060405180910390f35b60006102f86115fe565b60405180604001604052808c60006002811061031057fe5b602002015181526020018c60016002811061032757fe5b6020020151815250816000018190525060405180604001604052808b60006002811061034f57fe5b602002015181526020018b60016002811061036657fe5b60200201518152508160200181905250604051806040016040528060405180604001604052808c60006002811061039957fe5b60200201516000600281106103aa57fe5b602002015181526020018c6000600281106103c157fe5b60200201516001600281106103d257fe5b6020020151815250815260200160405180604001604052808c6001600281106103f757fe5b602002015160006002811061040857fe5b602002015181526020018c60016002811061041f57fe5b602002015160016002811061043057fe5b6020020151815250815250816040018190525060405180604001604052808960006002811061045b57fe5b602002015181526020018960016002811061047257fe5b6020020151815250816060018190525060405180604001604052808860006002811061049a57fe5b60200201518152602001886001600281106104b157fe5b602002015181525081608001819052506040518060400160405280876000600281106104d957fe5b60200201518152602001876001600281106104f057fe5b60200201518152508160a0018190525060405180604001604052808660006002811061051857fe5b602002015181526020018660016002811061052f57fe5b60200201518152508160e0018190525060405180604001604052808560006002811061055757fe5b602002015181526020018560016002811061056e57fe5b60200201518152508160c00181905250606060026040519080825280602002602001820160405280156105b05781602001602082028038833980820191505090505b50905060008090505b60028110156105f8578481600281106105ce57fe5b60200201518282815181106105df57fe5b60200260200101818152505080806001019150506105b9565b5060006106058284610675565b1415610661577f3f3cfdb26fb5f9f1786ab4f1a1f9cd4c0b5e726cbdfc26e495261731aad44e396040518080602001828103825260228152602001806117eb6022913960400191505060405180910390a1600192505050610668565b6000925050505b9998505050505050505050565b600061067f611673565b61068761089d565b90508060e001515160018551011461069e57600080fd5b6106a66116e2565b6040518060400160405280600081526020016000815250905060008090505b855181101561071d5761070e826107098560e0015160018501815181106106e857fe5b60200260200101518985815181106106fc57fe5b6020026020010151610ed2565b610f66565b915080806001019150506106c5565b50610740818360e0015160008151811061073357fe5b6020026020010151610f66565b90506107698460000151836000015161075c8760200151611019565b6107646110b3565b61117d565b61077857600192505050610897565b61079f826020015185604001516107928760600151611019565b61079a6110b3565b61117d565b6107ae57600292505050610897565b6107d5846080015183604001516107c88760a00151611019565b6107d06110b3565b61117d565b6107e457600392505050610897565b6108308460c00151836060015161081461080f8561080a8a600001518b60800151610f66565b610f66565b611019565b8560a001516108268760800151611019565b8960400151611279565b61083f57600492505050610897565b610881610850828660000151610f66565b85604001516108628760e00151611019565b8560c001516108748960800151611019565b61087c6110b3565b611279565b61089057600592505050610897565b6000925050505b92915050565b6108a5611673565b604051806040016040528060405180604001604052807f1181a264e8d4d1c02749962eb595df7c5a557b928e10bb21af60fb939a1c315681526020017f053c46a0f83f54b3966246ded40cb77a5b465469966eaf551f333983f40d1bf2815250815260200160405180604001604052807f0f4707b6e291e61c56444dc252e5c90cbf99e9f101f4431bea8dc851a632a0f881526020017f1bfdc1a1b35734db613dd49042450838416cf18926ca0dea4f6c1afdeb9577ff815250815250816000018190525060405180604001604052807f22ce794486070d8dde173ef12c62c953c95f4f6628009eabcbce2047c534d4a581526020017f278120382e36bafc3172e3da2ff503d3652fd0430c784e9ed56fc269dcd32cf68152508160200181905250604051806040016040528060405180604001604052807f0d69842dab047a70d8904a93ad56d4bf689bed5771177e85c97c8ff48605546c81526020017f028329b002ecfcfccebb1b873ad9380f4cc70ce53611f5a3946c9de9bc06b3e3815250815260200160405180604001604052807f21d9a6d6390f4ac61e224fdb0237c8ebbe89e16ef7bd16a76412127514dc128281526020017f201a3afe2824c31c1039540711f5c8aadb29d2010044046269d9e703d170b9dc8152508152508160400181905250604051806040016040528060405180604001604052807f2214d078253e040ae3af5939b058118e92dc836a4f6efd2ef685c0ab43858f0a81526020017f239ae8f1a57726ad351d3aa7bfeeac7f39ddd1615fda49e82f8cb505a5a7d44c815250815260200160405180604001604052807f116fdf8000dfacbc0c70deb788ce593377b0e95675afe6102129830fb681b7c081526020017f2b62ec9962d47e0fc3a176ca8c065615ca4ce7540e828e163b6858229038f96c815250815250816060018190525060405180604001604052807f241741f5f6f21f17facf1346ab8e27fdbe0684630450a1a1c508638dac81cd0381526020017f1a42b5351dc952574f33ee55333f4df58523f0f9d12faa52713b6bf30269200b8152508160800181905250604051806040016040528060405180604001604052807f05030a3d6af356f41e0d098d54a5b68d32a2904ab7076791d08aaab306e1b4d781526020017f24dc941c1d10505b2419465d2c773a32015b503f0957c32078f8440c0918bf41815250815260200160405180604001604052807f07cc2da83a55dcba0e30618a1d14023d5335a4f3c07b668aa5c8c1e3ef51113881526020017f2fa36e0aa0ab8fd0597b5100aa81c843029c3e7c11df73fbc1b4a231dcbc89538152508152508160a00181905250604051806040016040528060405180604001604052807f2725d342304b44489a2b3de6207f3b1e76ce889efc3eb6844dd89f0623a6808c81526020017f2679db26d0ec6012f8079772f64f03be69e1e7018a13b522c752d633c59ff876815250815260200160405180604001604052807f2661f440421edc6fb3c152fcc81d5559595537d1f67cd5160284bc557d25944481526020017f2a3566bd97303bdab8529c925586445116bcd73f949f46018c846b173644cd468152508152508160c001819052506003604051908082528060200260200182016040528015610d7357816020015b610d606116fc565b815260200190600190039081610d585790505b508160e0018190525060405180604001604052807f141e1c94b3845e13157126a6906ce8d59816d6a339a46b41394dee7afb06749981526020017f2b1d59a13483b9e4cbf4b737dbfee2a8cf4792d9e4ad4c576ee3d9aee237f1628152508160e00151600081518110610de257fe5b602002602001018190525060405180604001604052807f094df66a982d72e8749c734907d34fe17923f22bc45162ade536e07bc321820b81526020017f1c3151c32bb172a8de31953a53c0f306de2d01438462762327afd17f2c013ed48152508160e00151600181518110610e5357fe5b602002602001018190525060405180604001604052807f2ce11a260f173d900a7187c8343eb22877f0326c111782e54a399f2b584d6c9581526020017f137f035eef7c1aeefc76b94fb34443e5fdbaa1d93015e5b101041553460a4cfc8152508160e00151600281518110610ec457fe5b602002602001018190525090565b610eda6116e2565b610ee2611716565b836000015181600060038110610ef457fe5b602002018181525050836020015181600160038110610f0f57fe5b6020020181815250508281600260038110610f2657fe5b6020020181815250506000606083608084600060076107d05a03f190508060008114610f5157610f53565bfe5b5080610f5e57600080fd5b505092915050565b610f6e6116e2565b610f76611738565b836000015181600060048110610f8857fe5b602002018181525050836020015181600160048110610fa357fe5b602002018181525050826000015181600260048110610fbe57fe5b602002018181525050826020015181600360048110610fd957fe5b602002018181525050600060608360c084600060066107d05a03f19050806000811461100457611006565bfe5b508061101157600080fd5b505092915050565b6110216116e2565b60007f30644e72e131a029b85045b68181585d97816a916871ca8d3c208c16d87cfd4790506000836000015114801561105e575060008360200151145b156110825760405180604001604052806000815260200160008152509150506110ae565b604051806040016040528084600001518152602001828560200151816110a457fe5b0683038152509150505b919050565b6110bb61175a565b604051806040016040528060405180604001604052807f198e9393920d483a7260bfb731fb5d25f1aa493335a9e71297e485b7aef312c281526020017f1800deef121f1e76426a00665e5c4479674322d4f75edadd46debd5cd992f6ed815250815260200160405180604001604052807f090689d0585ff075ec9e99ad690c3395bc4b313370b38ef355acdadcd122975b81526020017f12c85ea5db8c6deb4aab71808dcb408fe3d1e7690c43d37b4ce6cc0166fa7daa815250815250905090565b6000606060026040519080825280602002602001820160405280156111bc57816020015b6111a96116fc565b8152602001906001900390816111a15790505b509050606060026040519080825280602002602001820160405280156111fc57816020015b6111e9611780565b8152602001906001900390816111e15790505b509050868260008151811061120d57fe5b6020026020010181905250848260018151811061122657fe5b6020026020010181905250858160008151811061123f57fe5b6020026020010181905250838160018151811061125857fe5b602002602001018190525061126d82826113a9565b92505050949350505050565b6000606060036040519080825280602002602001820160405280156112b857816020015b6112a56116fc565b81526020019060019003908161129d5790505b509050606060036040519080825280602002602001820160405280156112f857816020015b6112e5611780565b8152602001906001900390816112dd5790505b509050888260008151811061130957fe5b6020026020010181905250868260018151811061132257fe5b6020026020010181905250848260028151811061133b57fe5b6020026020010181905250878160008151811061135457fe5b6020026020010181905250858160018151811061136d57fe5b6020026020010181905250838160028151811061138657fe5b602002602001018190525061139b82826113a9565b925050509695505050505050565b600081518351146113b957600080fd5b60008351905060006006820290506060816040519080825280602002602001820160405280156113f85781602001602082028038833980820191505090505b50905060008090505b8381101561159e5786818151811061141557fe5b60200260200101516000015182600060068402018151811061143357fe5b60200260200101818152505086818151811061144b57fe5b60200260200101516020015182600160068402018151811061146957fe5b60200260200101818152505085818151811061148157fe5b60200260200101516000015160006002811061149957fe5b60200201518260026006840201815181106114b057fe5b6020026020010181815250508581815181106114c857fe5b6020026020010151600001516001600281106114e057fe5b60200201518260036006840201815181106114f757fe5b60200260200101818152505085818151811061150f57fe5b60200260200101516020015160006002811061152757fe5b602002015182600460068402018151811061153e57fe5b60200260200101818152505085818151811061155657fe5b60200260200101516020015160016002811061156e57fe5b602002015182600560068402018151811061158557fe5b6020026020010181815250508080600101915050611401565b506115a76117a6565b60006020826020860260208601600060086107d05a03f1905080600081146115ce576115d0565bfe5b50806115db57600080fd5b6000826000600181106115ea57fe5b602002015114159550505050505092915050565b6040518061010001604052806116126116fc565b815260200161161f6116fc565b815260200161162c611780565b81526020016116396116fc565b81526020016116466116fc565b81526020016116536116fc565b81526020016116606116fc565b815260200161166d6116fc565b81525090565b604051806101000160405280611687611780565b81526020016116946116fc565b81526020016116a1611780565b81526020016116ae611780565b81526020016116bb6116fc565b81526020016116c8611780565b81526020016116d5611780565b8152602001606081525090565b604051806040016040528060008152602001600081525090565b604051806040016040528060008152602001600081525090565b6040518060600160405280600390602082028038833980820191505090505090565b6040518060800160405280600490602082028038833980820191505090505090565b604051806040016040528061176d6117c8565b815260200161177a6117c8565b81525090565b60405180604001604052806117936117c8565b81526020016117a06117c8565b81525090565b6040518060200160405280600190602082028038833980820191505090505090565b604051806040016040528060029060208202803883398082019150509050509056fe5472616e73616374696f6e207375636365737366756c6c792076657269666965642ea265627a7a72315820405776c53584dc784a0a21b41154ed4bc9ae63faefab1289dd5cd644d9d75ca564736f6c63430005100032",
  "source": "pragma solidity >=0.4.21 <0.6.0;\nimport \"openzeppelin-solidity/contracts/utils/Address.sol\";\nimport \"./Verifier.sol\";\nimport \"./ERC721Mintable.sol\";\n\n// TODO define a contract call to the zokrates generated solidity contract <Verifier> or <renamedVerifier>\ncontract SquareVerifier is Verifier {\n\n}\n\n\n// TODO define another contract named SolnSquareVerifier that inherits from your ERC721Mintable class\ncontract SolnSquareVerifier is CustomERC721Token {\n    SquareVerifier public verifierContract;\n\n    constructor (address verifierAddress) CustomERC721Token() public {\n        verifierContract = SquareVerifier(verifierAddress);\n    }\n\n    // TODO define a solutions struct that can hold an index & an address\n    struct Solutions {\n        uint tokenId;\n        address to;\n    }\n\n    // TODO define an array of the above struct\n    Solutions[] SolutionsArray;\n\n    // TODO define a mapping to store unique solutions submitted\n    mapping(bytes32 => Solutions) private uniqueSolutions;\n\n\n    // TODO Create an event to emit when a solution is added\n    event SolutionAdd(uint tokenId, address to);\n\n\n    // TODO Create a function to add the solutions to the array and emit the event\n    function AddSolution(address to, uint tokenId, bytes32 key) public {\n        Solutions memory _solns = Solutions({tokenId: tokenId, to: to});\n        SolutionsArray.push(_solns);\n        uniqueSolutions[key] = _solns;\n        emit SolutionAdd(tokenId, to);\n    }\n\n    // TODO Create a function to mint new NFT only after the solution has been verified\n    //  - make sure the solution is unique (has not been used before)\n    //  - make sure you handle metadata as well as tokenSuplly\n    function VerifyToken(address _to,uint _tokenId,\n            uint[2] memory a,\n            uint[2] memory a_p,\n            uint[2][2] memory b,\n            uint[2] memory b_p,\n            uint[2] memory c,\n            uint[2] memory c_p,\n            uint[2] memory h,\n            uint[2] memory k,\n            uint[2] memory input)\n            public  \n            {\n                // check if solution is valid\n                require(verifierContract.verifyTx(a, a_p, b, b_p, c, c_p, h, k, input), \"solution not valid\");\n                bytes32 key = keccak256(abi.encodePacked(a,a_p,b,b_p,c,c_p,h,k,input));\n                require(uniqueSolutions[key].to == address(0),\"Solution already used.\");    \n                \n                AddSolution(_to,_tokenId,key);\n                \n            }\n    \n    \n    function mintToken(address _to,uint _tokenId,\n            uint[2] memory a,\n            uint[2] memory a_p,\n            uint[2][2] memory b,\n            uint[2] memory b_p,\n            uint[2] memory c,\n            uint[2] memory c_p,\n            uint[2] memory h,\n            uint[2] memory k,\n            uint[2] memory input)\n            public\n            {\n                bytes32 key = keccak256(abi.encodePacked(a,a_p,b,b_p,c,c_p,h,k,input));\n                require(uniqueSolutions[key].to == address(0),\"Solution already used.\");\n                require(verifierContract.verifyTx(a,a_p,b,b_p,c,c_p,h,k,input),\" solution not valid\");\n                \n                AddSolution(_to,_tokenId,key);\n                super.mint(_to,_tokenId);\n            }\n\n}\n\n\n\n\n\n\n\n\n\n\n\n\n\n\n\n\n\n\n\n\n\n\n\n\n\n\n",
  "sourcePath": "/Users/qcao/Documents/SmartContracts/Blockchain-Capstone/eth-contracts/contracts/SolnSquareVerifier.sol",
  "compiler": {
    "name": "solc",
    "version": "0.5.16+commit.9c3226ce.Emscripten.clang"
  },
  "schemaVersion": "3.4.3",
  "updatedAt": "2021-12-20T18:44:08.116Z",
  "networkType": "ethereum",
  "devdoc": {
    "methods": {}
  },
  "userdoc": {
    "methods": {}
  }
}